S00D00005461736B362E737265634E
S11300000C942A000C9434000C9434000C943400A6
S11300100C9434000C9434000C9434000C9434008C
S11300200C9434000C9434000C9434000C9434007C
S11300300C9434000C9434000C9434000C9434006C
S11300400C9434000C9434000C9434000C9434005C
S11300500C94340011241FBECFE5D8E0DEBFCDBF21
S11300600E9457000C945E000C94000014BA81E0C6
S113007085BB089543B321E030E0B90102C0660FA7
S1130080771F8A95E2F7CB018423089580E00E94CC
S11300903A0081111BBA80E00E943A00813011F0CD
S11300A081E08BBB089581E08ABB8BBB08950E94DD
S11300B053000E9436000E944600FDCFF894FFCF03
S9030000FC
